S00B0000524F562E7372656322
S11300000C9434000C9451000C9451000C94510045
S11300100C9451000C9451000C9451000C94510018
S11300200C9451000C9451000C9451000C948800D1
S11300300C94C2000C9451000C9451000C94510087
S11300400C9451000C9451000C9451000C945100E8
S11300500C9451000C9451000C9451000C945100D8
S11300600C94FF000C94510011241FBECFEFD8E074
S1130070DEBFCDBF11E0A0E0B1E0E6EAF2E002C0ED
S113008005900D92A831B107D9F721E0A8E1B1E0BC
S113009001C01D92AE31B207E1F70E9473000C94C7
S11300A051010C940000ECEBF0E08081856C8083BE
S11300B084E18093BA001092B9000895EFE6F0E06D
S11300C08081866080838FE39CE99093870080938E
S11300D08600E1E8F0E080818A61808308958FEFF3
S11300E08AB984B908950E9453000E946F007894DD
S11300F0E0911B01F0E0EE0FFF1FE45FFE4F8081F3
S1130100918190938900809388000E945E00FFCFC4
S11301101F920F920FB60F9211242F933F938F9338
S11301209F93EF93FF9330911B012BB181E090E0FB
S113013002C0880F991F3A95E2F7822B8BB9E091A0
S11301401B01F0E0EE0FFF1FE45FFE4F20813181C1
S1130150E0911B01F0E0EE0FFF1FE050FF4F8081A4
S11301609181820F931F90938B0080938A00FF915B
S1130170EF919F918F913F912F910F900FBE0F9010
S11301801F9018951F920F920FB60F9211242F9360
S11301903F938F939F93EF93FF9330911B012BB168
S11301A081E090E002C0880F991F3A95E2F78095AC
S11301B0909582238BB980911B01853019F410929C
S11301C01B0105C080911B018F5F80931B01E0918F
S11301D01B01F0E0EE0FFF1FE45FFE4F8081918171
S11301E09093890080938800FF91EF919F918F9164
S11301F03F912F910F900FBE0F901F9018951F9253
S11302000F920FB60F9211242F938F939F93EF9316
S1130210FF938091B900803869F0803A09F1803603
S113022021F5ECEBF0E08081806C808380818F7E0F
S113023080831BC0ECEBF0E08081806C8083808144
S11302408F7E8083E0911A01F0E08091BB00E85E2C
S1130250FE4F808380911A018F5F80931A0105C03D
S1130260ECEBF0E080818068808380911A0181301A
S113027071F4E8E1F1E08181208190E0922B909388
S11302801D0180931C011082118210921A01FF91AA
S1130290EF919F918F912F910F900FBE0F901F9010
S10902A01895F894FFCF4D
S11302A6B414B414B414B414B414B41400000A1A70
S10B02B614341E4E2868328244
S9030000FC
