:100000000C9434000C943E000C943E000C943E0082
:100010000C943E000C943E000C943E000C943E0068
:100020000C943E000C943E000C943E000C943E0058
:100030000C943E000C943E000C943E000C943E0048
:100040000C943E000C943E000C943E000C943E0038
:100050000C943E000C943E000C943E000C943E0028
:100060000C9474000C943E0011241FBECFEFD8E016
:10007000DEBFCDBF0E946C000C94A6000C94000063
:10008000ECEBF0E08081856C808380E28093BA00A5
:100090001092B9000895E0E8F0E08081826A8083E0
:1000A000E1E8F0E080818A61808380E49CE99093BC
:1000B00087008093860080E29EE49093890080937D
:1000C000880080E197E290938B0080938A000895E6
:1000D0008FEF8AB984B908950E9440000E944B00B6
:1000E0000E9468007894FFCF1F920F920FB60F9274
:1000F00011248F93EF93FF938091B900803869F0BA
:10010000803AB9F08036D1F4ECEBF0E08081806C7D
:10011000808380818F7E808311C0ECEBF0E0808152
:10012000806C808380818F7E80838091BB0085B9C5
:1001300005C0ECEBF0E0808180688083FF91EF9157
:100140008F910F900FBE0F901F901895F894FFCFCE
:00000001FF
